:100000000C942A000C941C040C9443040C946A0471
:100010000C9491040C94B8040C94DF040C94060521
:100020000C942D050C9454050C947B050C94A2059E
:100030000C94C9050C94F0050C9417060C943E061C
:100040000C9465060C948C060C94B3060C94DA069A
:100050000C94010711241FBECFE5D8E0DEBFCDBF51
:1000600011E0A0E6B0E0EEE5F4E202C005900D92EA
:10007000AA3DB107D9F712E0AAEDB1E001C01D9287
:10008000AF35B107E1F70E9475100C942D120C9456
:1000900000000E9467000E94B60380E008950E945D
:1000A000BF038AED91E00E94D5038091DA0190911F
:1000B000DB018F31910528F483E062E30E946B003D
:1000C00004C081E062E30E946B0080E0089583E059
:1000D0000E944D020895CF93C62F8230A1F0833045
:1000E00020F4813009F042C005C0833051F18430E2
:1000F000E9F512C083E061E00E947C0283E06C2F8E
:100100000E94250334C083E062E00E947C0283E009
:100110006C2F0E9425032BC081E061E00E947C02CD
:1001200082E062E00E947C0283E06C2F0E94250343
:1001300081E060E00E947C0282E060E00E947C023C
:1001400016C081E062E00E947C0282E061E00E94D1
:100150007C0283E06C2F0E94250381E060E00E9416
:100160007C0282E060E00E947C0201C080E0CF91CE
:10017000089580E068E04FEF0E94B60761E070E00C
:1001800080E090E00E94AB0380E068E040E00E94E5
:10019000B60761E070E080E090E00E94AB03089554
:1001A00089E790E00E9428070895CF93C82FC29551
:1001B000CF70C0FF06C080E060E14FEF0E94B6073D
:1001C00005C080E060E140E00E94B607C1FF06C0C4
:1001D00080E060E24FEF0E94B60705C080E060E279
:1001E00040E00E94B607C2FF06C080E060E44FEF27
:1001F0000E94B60705C080E060E440E00E94B607B8
:10020000C87031F080E060E84FEF0E94B60705C08B
:1002100080E060E840E00E94B607CF910895CF9358
:10022000C82F80E062E04FEF0E94B6078C2F0E943B
:10023000D5000E94B9008C2F8295807F0E94D50046
:100240000E94B90061E070E080E090E00E949503B8
:10025000CF910895CF93C82F80E062E040E00E94E4
:10026000B6078C2F0E94D5000E94B9008C2F829572
:10027000807F0E94D5000E94B90061E070E080E0BC
:1002800090E00E949503CF9108950F931F93CF9311
:10029000DF93CDB7DEB729970FB6F894DEBF0FBE58
:1002A000CDBF8E010F5F1F4F89E0F80111928A9533
:1002B000E9F783E3898382E38A8388E28B838EE094
:1002C0008C8381E08D8386E08E838CE08F830E9417
:1002D000D0008091DC01F801E80FF11D80818823B6
:1002E00051F00E942A018091DC018F5F8093DC0134
:1002F0001092060203C081E08093060229960FB691
:10030000F894DEBF0FBECDBFDF91CF911F910F914B
:10031000089581E00E942A010895CF93DF93EC01B4
:100320008881882331F021960E940F0189918823CA
:10033000D9F7DF91CF910895623031F0633031F019
:10034000613029F4805C03C08C5E01C08C5A8068E7
:100350000E942A0108950F931F93CF93DF934017B4
:10036000510762077307C0F4D8011196A80FB91F8F
:10037000FC01E40FF51F4F5F5F4F6F4F7F4F015040
:10038000104020403040C081DE91D193CC93401783
:1003900051076207730778F3DF91CF911F910F9197
:1003A00008954F925F926F927F928F929F92AF9239
:1003B000BF92CF92DF92EF92FF920F931F93CF9352
:1003C000DF936B017C012A0148015901D901C80161
:1003D0000297A109B1098F319105A105B10508F076
:1003E00049C09601DD201CF4309521953F4F211521
:1003F000310539F1E20101E010E06901EE24D7FC9A
:10040000E094FE2CC701B601A50194010E940B12D5
:100410006A30710524F0695C6883380103C0605D4F
:1004200068833801C701B601A50194010E940B122F
:100430000F5F1F4F219621153105F9F661147104E4
:1004400031F480E3F2018083662477246394F2011F
:10045000E60DF71D108208946108710883012227B8
:1004600017FD2095322FC20140E050E0BA010E94F2
:10047000AB012C01842D952DDF91CF911F910F9110
:10048000FF90EF90DF90CF90BF90AF909F908F90B4
:100490007F906F905F904F900895823079F0833015
:1004A000C9F0813039F58093DD0184E890E00E9445
:1004B000A20986E690E00E942807089582E08093D2
:1004C000DD0182E890E00E94A20983E690E00E94AC
:1004D0002807089583E08093DD0184E890E00E947E
:1004E000A20982E890E00E94A20980E690E00E94C2
:1004F0002807089581E00895823079F1833009F466
:1005000055C0813009F099C0613031F06130D0F0D0
:10051000623009F094C00BC083E064E04FEF0E94AA
:10052000B60783E068E040E00E94B607089583E0E4
:1005300068E04FEF0E94B60783E064E040E00E946D
:10054000B607089583E064E040E00E94B60783E0C8
:1005500068E040E00E94B6070895613031F06130F4
:10056000D0F0623009F06DC00BC083E060E84FEF5F
:100570000E94B60783E060E440E00E94B607089559
:1005800083E060E44FEF0E94B60783E060E840E05C
:100590000E94B607089583E060E440E00E94B60739
:1005A00083E060E840E00E94B6070895613031F0D2
:1005B000613070F1623009F046C015C083E064E03C
:1005C0004FEF0E94B60783E068E040E00E94B60764
:1005D00083E060E440E00E94B60783E060E84FEF0C
:1005E0000E94B607089583E064E040E00E94B607E9
:1005F00083E068E04FEF0E94B60783E060E44FEFCE
:100600000E94B60783E060E840E00E94B6070895C4
:1006100083E064E040E00E94B60783E060E440E0ED
:100620000E94B60783E068E040E00E94B60783E0DE
:1006300060E840E00E94B607089580E0089580E0F9
:10064000089580E0089581E00895823069F0833054
:10065000A9F08130F1F48093DE012EE130E040E03A
:1006600050E00E94CC09089582E08093DE012EE1E3
:1006700030E040E050E00E94CC09089583E0809390
:10068000DE0182E02EE130E040E050E00E94CC0943
:10069000089581E00895823079F08330C1F081308F
:1006A00011F58091DD01813001F52EE130E040E06F
:1006B00050E00E94CC0908958091DD018230B9F4A8
:1006C0002EE130E040E050E00E94CC090895809196
:1006D000DD01833071F482E02EE130E040E050E053
:1006E0000E94CC09089581E0089581E0089581E099
:1006F000089581E00895813019F0823049F404C0F2
:1007000081E00E949D0B089582E00E949D0B089558
:1007100081E008959091DD01981721F481E0FB01BB
:1007200080830895FB0110820895DC01CB010097BE
:10073000A105B10561F408952150F1F7315011F090
:10074000242FFACF0197A109B10919F4089555E1B1
:100750004FEF352FF5CFDC01CB010097A105B10597
:1007600021F00197A109B109E1F7089589E690E028
:100770000E9428078CE790E00E945B08089582E0C1
:1007800090E060E170E04FEF50E00E94B60780E03B
:100790006AE070E00E94D00B82E090E060E170E0DF
:1007A00040E050E00E94B60708950F931F93CF9347
:1007B000DF9300D000D0CDB7DEB78C0182E061E0DE
:1007C000AE014F5F5F4F0E948C0829813A81F8018A
:1007D000318320830F900F900F900F90DF91CF9176
:1007E0001F910F9108958FB780688FBF0895BA98B1
:1007F000C29A8BB780628BBF84B7806484BF089530
:100800008B98939A8BB780688BBF85B7846085BFC0
:1008100085B7877F85BF08958A98929A8BB7806441
:100820008BBF85B7816085BF85B78D7F85BF0895F4
:100830008FB78F778FBF08951F920F920FB60F92C9
:1008400011242F933F934F935F936F937F938F93D5
:100850009F93AF93BF93EF93FF93E0912302F091A7
:1008600024020995FF91EF91BF91AF919F918F91D4
:100870007F916F915F914F913F912F910F900FBE9C
:100880000F901F9018951F920F920FB60F92112480
:100890002F933F934F935F936F937F938F939F9388
:1008A000AF93BF93EF93FF93E0912B02F0912C0253
:1008B0000995FF91EF91BF91AF919F918F917F919A
:1008C0006F915F914F913F912F910F900FBE0F90BD
:1008D0001F9018951F920F920FB60F9211242F930D
:1008E0003F934F935F936F937F938F939F93AF93B8
:1008F000BF93EF93FF93E0916E00F0916F00099525
:10090000FF91EF91BF91AF919F918F917F916F91E7
:100910005F914F913F912F910F900FBE0F901F90BD
:1009200018951F920F920FB60F9211242F933F9399
:100930004F935F936F937F938F939F93AF93BF93E7
:10094000EF93FF93E0913102F09132020995FF910C
:10095000EF91BF91AF919F918F917F916F915F9137
:100960004F913F912F910F900FBE0F901F901895B0
:100970001F920F920FB60F9211242F933F934F9314
:100980005F936F937F938F939F93AF93BF93EF93F7
:10099000FF93E0911302F09114020995FF91EF91FA
:1009A000BF91AF919F918F917F916F915F914F9187
:1009B0003F912F910F900FBE0F901F9018951F928F
:1009C0000F920FB60F9211242F933F934F935F9383
:1009D0006F937F938F939F93AF93BF93EF93FF9307
:1009E000E0912D02F0912E020995FF91EF91BF91B8
:1009F000AF919F918F917F916F915F914F913F91B7
:100A00002F910F900FBE0F901F9018951F920F926D
:100A10000FB60F9211242F933F934F935F936F93D1
:100A20007F938F939F93AF93BF93EF93FF93E09147
:100A30001902F0911A020995FF91EF91BF91AF91C0
:100A40009F918F917F916F915F914F913F912F91E6
:100A50000F900FBE0F901F9018951F920F920FB618
:100A60000F9211242F933F934F935F936F937F9334
:100A70008F939F93AF93BF93EF93FF93E0911702F0
:100A8000F09118020995FF91EF91BF91AF919F915D
:100A90008F917F916F915F914F913F912F910F9027
:100AA0000FBE0F901F9018951F920F920FB60F92C6
:100AB00011242F933F934F935F936F937F938F9363
:100AC0009F93AF93BF93EF93FF93E0912F02F09129
:100AD00030020995FF91EF91BF91AF919F918F9156
:100AE0007F916F915F914F913F912F910F900FBE2A
:100AF0000F901F9018951F920F920FB60F9211240E
:100B00002F933F934F935F936F937F938F939F9315
:100B1000AF93BF93EF93FF93E0912702F0912802E8
:100B20000995FF91EF91BF91AF919F918F917F9127
:100B30006F915F914F913F912F910F900FBE0F904A
:100B40001F9018951F920F920FB60F9211242F939A
:100B50003F934F935F936F937F938F939F93AF9345
:100B6000BF93EF93FF93E0916C00F0916D000995B6
:100B7000FF91EF91BF91AF919F918F917F916F9175
:100B80005F914F913F912F910F900FBE0F901F904B
:100B900018951F920F920FB60F9211242F933F9327
:100BA0004F935F936F937F938F939F93AF93BF9375
:100BB000EF93FF93E0911B02F0911C020995FF91C6
:100BC000EF91BF91AF919F918F917F916F915F91C5
:100BD0004F913F912F910F900FBE0F901F9018953E
:100BE0001F920F920FB60F9211242F933F934F93A2
:100BF0005F936F937F938F939F93AF93BF93EF9385
:100C0000FF93E0911102F09112020995FF91EF918B
:100C1000BF91AF919F918F917F916F915F914F9114
:100C20003F912F910F900FBE0F901F9018951F921C
:100C30000F920FB60F9211242F933F934F935F9310
:100C40006F937F938F939F93AF93BF93EF93FF9394
:100C5000E0912902F0912A020995FF91EF91BF914D
:100C6000AF919F918F917F916F915F914F913F9144
:100C70002F910F900FBE0F901F9018951F920F92FB
:100C80000FB60F9211242F933F934F935F936F935F
:100C90007F938F939F93AF93BF93EF93FF93E091D5
:100CA0002502F09126020995FF91EF91BF91AF9136
:100CB0009F918F917F916F915F914F913F912F9174
:100CC0000F900FBE0F901F9018951F920F920FB6A6
:100CD0000F9211242F933F934F935F936F937F93C2
:100CE0008F939F93AF93BF93EF93FF93E0911F0276
:100CF000F09120020995FF91EF91BF91AF919F91E3
:100D00008F917F916F915F914F913F912F910F90B4
:100D10000FBE0F901F9018951F920F920FB60F9253
:100D200011242F933F934F935F936F937F938F93F0
:100D30009F93AF93BF93EF93FF93E0912102F091C4
:100D400022020995FF91EF91BF91AF919F918F91F1
:100D50007F916F915F914F913F912F910F900FBEB7
:100D60000F901F9018951F920F920FB60F9211249B
:100D70002F933F934F935F936F937F938F939F93A3
:100D8000AF93BF93EF93FF93E0911D02F0911E028A
:100D90000995FF91EF91BF91AF919F918F917F91B5
:100DA0006F915F914F913F912F910F900FBE0F90D8
:100DB0001F9018951F920F920FB60F9211242F9328
:100DC0003F934F935F936F937F938F939F93AF93D3
:100DD000BF93EF93FF93E0910F02F09110020995FA
:100DE000FF91EF91BF91AF919F918F917F916F9103
:100DF0005F914F913F912F910F900FBE0F901F90D9
:100E000018951F920F920FB60F9211242F933F93B4
:100E10004F935F936F937F938F939F93AF93BF9302
:100E2000EF93FF93E0911502F09116020995FF915F
:100E3000EF91BF91AF919F918F917F916F915F9152
:100E40004F913F912F910F900FBE0F901F901895CB
:100E5000FC01009709F47BC081E08093DF0182816F
:100E6000882321F08F3F09F074C03BC0808181301E
:100E7000A1F0813030F08230E1F0833009F06BC0B6
:100E800024C09AB38181809589238ABB8091E00137
:100E90008F5F8093E00180E0089597B38181809512
:100EA000892387BB8091E0018E5F8093E00180E021
:100EB000089594B381818095892384BB8091E0015A
:100EC0008D5F8093E00180E0089591B381818095EA
:100ED000892381BB8091E0018C5F8093E00180E0F9
:100EE00008958081813091F0813028F08230C9F0FE
:100EF000833099F521C09AB38181892B8ABB809177
:100F0000E0018F5F8093E00180E0089597B38181D5
:100F1000892B87BB8091E0018E5F8093E00180E0A8
:100F2000089594B38181892B84BB8091E0018D5F0A
:100F30008093E00180E0089591B38181892B81BB8A
:100F40008091E0018C5F8093E00180E0089586E16C
:100F5000089583E2089585E2089585E20895109248
:100F6000DF01089581E08093DF0108959091DF0112
:100F7000913009F044C0442321F04F3F09F041C0B3
:100F800021C0813069F0813028F0823079F08330DF
:100F9000D1F512C08BB3609568236BBB84E10895D3
:100FA00088B36095682368BB84E1089585B3609534
:100FB000682365BB84E1089582B36095682362BBB2
:100FC00084E10895813061F0813028F0823069F049
:100FD0008330D9F40FC08BB3682B6BBB84E10895C9
:100FE00088B3682B68BB84E1089585B3682B65BB23
:100FF00084E1089582B3682B62BB84E1089588E19F
:10100000089586E2089584E2089584E20895909117
:10101000DF01913049F5813069F0813028F082306C
:1010200079F08330C9F412C089B36823FA01608370
:1010300084E113C086B36823FA01608384E10DC0A4
:1010400083B36823FA01608384E107C080B3682317
:10105000FA01608384E101C084E2FA01908199235E
:1010600021F091E09083089588E108959091DF0147
:101070009130E9F4813061F0813028F0823069F0FC
:101080008330B9F40FC08BB368276BBB84E108953C
:1010900088B3682768BB84E1089585B3682765BB7A
:1010A00084E1089582B3682762BB84E1089588E1F2
:1010B000089584E20895CF93DF93EC010E94F30337
:1010C0008881813041F0813018F0823049F406C0C7
:1010D0000E940C0405C00E94000402C00E94F70395
:1010E0008981813051F0813018F0823089F40CC050
:1010F00085E083BF81E089BF0BC085E090E09FBDA4
:101100008EBD84E089BF04C087E085BD84E089BFCF
:1011100080E0DF91CF9108950F931F93813049F0C4
:10112000813018F0823071F40AC083B7836083BFC6
:1011300009C08EB59FB585609FBD8EBD03C085B5C6
:10114000876085BD613001F1613018F06230D1F502
:101150002AC08091E5019091E601A091E701B0914C
:10116000E8010091E1011091E2012091E301309149
:10117000E401800F911FA21FB31FFA0180839183A6
:10118000A283B38380E01FC08091E5019091E601C6
:10119000A091E701B091E801FA0180839183A283D5
:1011A000B38380E010C08091E1019091E201A091B1
:1011B000E301B091E401FA0180839183A283B383B8
:1011C00080E001C081E01F910F9108958CB59DB51D
:1011D000A0E0B0E08093F2019093F301A093F401BA
:1011E000B093F5011092F10184B7829586958695AA
:1011F000837080FF30C08091F2019091F301A09143
:10120000F401B091F5018093ED019093EE01A0936C
:10121000EF01B093F0018091ED019091EE01A0916A
:10122000EF01B091F0014091E9015091EA01609124
:10123000EB017091EC01841B950BA60BB70B80930F
:10124000E1019093E201A093E301B093E40184B73C
:101250008F7B84BF08958091F2019091F301A0915A
:10126000F401B091F5018093E9019093EA01A09314
:10127000EB01B093EC018091E9019091EA01A0911A
:10128000EB01B091EC014091ED015091EE016091C4
:10129000EF017091F001841B950BA60BB70B8093A7
:1012A000E5019093E601A093E701B093E80184B7CC
:1012B000806484BF08958130C1F0813018F082309D
:1012C000D1F526C082E060E146EF51E00E940708B8
:1012D0008091F601813081F59091F9019F5F9093A3
:1012E000F901933370F580E0089581E064E047EF01
:1012F00051E00E9407088091F7018130F9F4909144
:10130000F9019F5F9093F9019333D8F480E0089539
:1013100080E064E048EF51E00E9407088091F80106
:10132000813071F49091FA019F5F9093FA019531A9
:1013300040F480E00895089580E0089580E00895E5
:1013400080E00895FC018081813061F0813028F0D7
:10135000823081F08330D9F415C083B7886683BFAB
:1013600080E016C08EB59FB58062916A9FBD8EBD2C
:1013700080E00EC08EB59FB58062916A9FBD8EBD24
:1013800080E006C085B5886685BD80E001C081E04B
:1013900091819093FC010895CF92DF92EF92FF929A
:1013A0000F931F9389019A010F2EFEEACF2EF0EFC3
:1013B000DF2EFFEFEF2EFFEFFF2EF02DC00ED11E20
:1013C000E21EF31E9BE3C9169BE6D90690E0E906F0
:1013D00090E0F90618F41092FC01A2C00F2EFBE277
:1013E000CF2EFCEFDF2EFFEFEF2EFFEFFF2EF02DC5
:1013F000C00ED11EE21EF31E9DE7C9169BE0D90662
:1014000090E0E90690E0F90620F491E09093FC0169
:10141000A5C00F2EF5E1CF2EFEEFDF2EFFEFEF2E52
:10142000FFEFFF2EF02DC00ED11EE21EF31E9AEE2E
:10143000C91691E0D90690E0E90690E0F90620F49B
:1014400092E09093FC01A1C00F2EFAE0CF2EFFEFA7
:10145000DF2EFFEFEF2EFFEFFF2EF02DC00ED11E7F
:10146000E21EF31E95EFC916D104E104F10420F445
:1014700093E09093FC0190C00F2EF5E8CF2EFFEF84
:10148000DF2EFFEFEF2EFFEFFF2EF02DC00ED11E4F
:10149000E21EF31E9BE7C916D104E104F10420F417
:1014A00094E09093FC01A5C00F2EF0EECF2EFFEF3D
:1014B000DF2EFFEFEF2EFFEFFF2EF02DC00ED11E1F
:1014C000E21EF31E9BE5C916D104E104F10420F4E9
:1014D00095E09093FC0177C00150104020403040CF
:1014E0000F3111052105310520F496E09093FC01A0
:1014F00086C09091FC01933009F44EC0943030F4D2
:10150000913061F1923008F040C00AC0953009F482
:101510005AC0953008F46DC0963009F08DC06FC088
:10152000813061F0813030F0823071F0833009F029
:1015300083C010C083B7816083BF88C08EB59FB55C
:1015400081609FBD8EBD98C08EB59FB581609FBDE7
:101550008EBDADC085B5816085BDC4C0833018F433
:10156000813048F404C0833009F066C00AC083B7F4
:10157000826083BF6BC02EB53FB522603FBD2EBDDC
:101580005BC085B5826085BDADC0833009F054C0B5
:1015900085B5836085BDA6C0833018F4813048F4DA
:1015A00004C0833009F048C00AC083B7836083BF9A
:1015B0004DC02EB53FB523603FBD2EBD3DC085B5A6
:1015C000846085BD8FC0833018F4813040F403C03F
:1015D000833091F50AC083B7836083BF37C02EB5CF
:1015E0003FB523603FBD2EBD27C085B5846085BD56
:1015F00079C0833009F585B5856085BD73C08130BC
:1016000059F0813028F0823069F08330A9F410C09D
:1016100083B7856083BF1AC08EB59FB581609FBDBB
:101620008EBD2AC08EB59FB585609FBD8EBD3FC063
:1016300085B5876085BD56C08130F1F0813030F0CE
:101640008230A9F1833009F063C04CC070E080E0C3
:1016500090E00E941A1120E030E048EC52E40E9431
:10166000861020E030E04FE753E40E94A8110E946A
:10167000EE106CBF80E04DC070E080E090E00E9412
:101680001A1120E030E048EC52E40E94861020E07D
:1016900030E04FE753E40E94A8110E94EE10DC01F5
:1016A000CB019BBD8ABD99BD88BD80E032C070E092
:1016B00080E090E00E941A1120E030E048EC52E413
:1016C0000E94861020E030E04FE753E40E94A8110A
:1016D0000E94EE10DC01CB019BBD8ABD99BD88BD87
:1016E00080E017C070E080E090E00E941A1120E0D6
:1016F00030E048EC52E40E94861020E030E04FE7F2
:1017000053E40E94A8110E94EE1063BD80E001C066
:1017100081E091E09093FD011F910F91FF90EF9078
:10172000DF90CF9008959091FD01913021F40E94B7
:10173000CC0980E0089581E00895833018F4813069
:1017400048F403C0833081F40AC083B7887F83BF25
:1017500080E0089583B7887F83BF80E0089585B5D2
:10176000887F85BD80E0089581E00895813051F043
:10177000813018F0823091F40CC083B7887F83BF2A
:1017800080E008958EB59FB5887F9FBD8EBD80E0B7
:10179000089585B5887F85BD80E0089586E3089526
:1017A000CF93DF93EB01813009F47CC0813020F0CE
:1017B000823009F069C1ECC080910002813009F0EB
:1017C0006CC08091FF01843091F1853030F481301C
:1017D00051F0823009F05AC118C08630D1F18730FB
:1017E00009F054C148C06F3F710508F051C18091A4
:1017F000FE01813031F480E00E94B60B83B7816036
:1018000083BFC095C2BF80E062C16F3F710508F021
:1018100041C18091FE01813031F480E00E94B60B1D
:1018200083B7826083BFC095C2BF80E050C16F3F65
:10183000710508F031C18091FE01813031F480E002
:101840000E94B60B83B7836083BFC095C2BF80E0A0
:101850003EC16F3F710508F021C18091FE018130CA
:1018600031F480E00E94B60B83B7846083BFC095DB
:10187000C2BF80E02CC16F3F710508F011C180919B
:10188000FE01813031F480E00E94B60B83B78560A1
:1018900083BFC095C2BF80E01AC1823008F402C184
:1018A00084E215C180910102813009F06CC0809101
:1018B000FF01843091F1853030F4813051F0823075
:1018C00009F0F2C018C08630D1F1873009F0ECC0C1
:1018D00048C08091FE01813039F40E94B60B8EB56C
:1018E0009FB581609FBD8EBDD095C195DF4FDDBD99
:1018F000CCBD80E0ECC08091FE01813039F40E94C3
:10190000B60B8EB59FB582609FBD8EBDD095C1953B
:10191000DF4FDDBDCCBD80E0DAC08091FE018130BB
:1019200039F40E94B60B8EB59FB583609FBD8EBD06
:10193000D095C195DF4FDDBDCCBD80E0C8C08091A2
:10194000FE01813039F40E94B60B8EB59FB58460DC
:101950009FBD8EBDD095C195DF4FDDBDCCBD80E074
:10196000B6C08091FE01813039F40E94B60B8EB56D
:101970009FB585609FBD8EBDD095C195DF4FDDBD04
:10198000CCBD80E0A4C0823008F490C084E29FC047
:1019900080910202813009F073C08091FF01843090
:1019A000C9F1853040F48230E9F0833048F5813068
:1019B00009F07EC009C0863009F448C08630C0F105
:1019C000873009F075C04FC06F3F710508F072C0D5
:1019D00082E00E94B60B85B5816085BDC095C4BD0F
:1019E00080E075C06F3F710508F066C082E00E941C
:1019F000B60B85B5826085BDC095C4BD80E067C06B
:101A000082E00E94B60B85B5836085BDC095C4BDDC
:101A100080E05DC06F3F710508F050C082E00E9419
:101A2000B60B85B5846085BDC095C4BD80E04FC050
:101A30006F3F710508F044C082E00E94B60B85B587
:101A4000856085BDC095C4BD80E041C06F3F710514
:101A5000C8F582E00E94B60B85B5866085BDC0954D
:101A6000C4BD80E034C06F3F710570F582E00E9414
:101A7000B60B85B5876085BDC095C4BD80E027C025
:101A8000823020F184E223C086E321C080E01FC0C1
:101A900080E01DC080E01BC080E019C080E017C05E
:101AA00080E015C082E213C080E011C082E20FC066
:101AB00080E00DC080E00BC080E009C080E007C07E
:101AC00080E005C080E003C080E001C082E2DF91D9
:101AD000CF9108951F93CF93DF93EC01009709F402
:101AE00013C19981992321F481E08093FE0102C002
:101AF0001092FE018B818093FF018881813009F46F
:101B00005BC0813020F0823009F000C1AFC080910D
:101B100000028F5F8093000283B783BF8981813089
:101B2000C9F0813020F0823009F0F2C02CC08A81E7
:101B3000882321F0813009F0EDC005C089B78C7F82
:101B400089BF10E0FAC00E94F30389B7816089BFA2
:101B500010E0F3C080E00E94B60B83B78D6083BFB6
:101B60008A81882321F0813009F0D6C005C089B769
:101B70008C7F89BF10E0E1C00E94F30389B78160C8
:101B800089BF10E0DAC080E00E94B60B83B78C609A
:101B900083BF8A81882321F0813009F0BFC005C04E
:101BA00089B78C7F89BF10E0C8C00E94F30389B752
:101BB000816089BF10E0C1C0809101028F5F809376
:101BC00001029130E9F0913020F0923009F0A8C084
:101BD00032C08EB59FB59FBD8EBD8A81882321F00E
:101BE000813009F09FC005C089B7837C89BF10E0B0
:101BF000A4C00E94F30389B7846089BF10E09DC030
:101C000081E00E94B60B8EB59FB587609FBD8EBDEB
:101C10008A81882321F0813009F086C005C089B708
:101C2000837C89BF10E089C00E94F30389B7846078
:101C300089BF10E082C081E00E94B60B8EB59FB5CF
:101C400086609FBD8EBD8A81882321F0813009F096
:101C50006DC005C089B7837C89BF10E06EC00E944B
:101C6000F30389B7846089BF10E067C080910202E6
:101C70008F5F8093020285B585BD89818130C9F06F
:101C8000813020F0823009F053C028C08A81882337
:101C900021F0813009F04EC005C089B78F7389BF2C
:101CA00010E04BC00E94F30389B7806C89BF10E03D
:101CB00044C082B5886082BD8A81882319F0813052
:101CC00079F405C089B78F7389BF10E00AC00E94FC
:101CD000F30389B7806C89BF10E003C010E001C036
:101CE00010E382B5886082BD8A81882319F0813033
:101CF00019F504C089B78F7389BF1FC00E94F30311
:101D000089B7806C89BF19C010E217C010E015C0F8
:101D100010E013C010E011C010E00FC010E00DC0C3
:101D200014E30BC010E309C010E307C010E305C0C3
:101D300016E303C010E301C010E3812FDF91CF91C0
:101D40001F91089561157105F9F0813059F08130C6
:101D500018F08230D9F40EC088B78170FB018083FF
:101D600080E0089588B7869586958170FB01808311
:101D700080E0089588B782958695869583708170F6
:101D8000FB01808380E0089580E2089586E3089552
:101D900061157105D1F0813059F0813018F0823031
:101DA000B1F40DC082B7FB018083118280E00895F9
:101DB0008CB59DB5FB019183808380E0089584B547
:101DC000FB018083118280E0089580E2089586E31C
:101DD00008950F931F93CF93DF93EC0109818091B6
:101DE00005028F5F80930502209711F010E001C07B
:101DF0001AE2002319F0023079F407C00E94F303BD
:101E00008CE890E00E946A0D08C00E94F30382E90A
:101E100090E00E946A0D01C01F5F8881813099F4B3
:101E2000002319F0023069F406C080E06AEF70E028
:101E30000E94D00B09C082E06EE070E00E94D00BDF
:101E400003C01F5F01C01F5F812FDF91CF911F91E2
:101E50000F91089580910502813041F486E890E069
:101E60000E946A0D1092050280E00895823010F001
:101E700086E0089581E0089550910502513099F46B
:101E8000E42FF0E0EE0FFF1FEE0FFF1FEE0FFF1F1E
:101E9000E95CFD4F9183808365833483238381E0F4
:101EA000828380E00895523010F086E0089584E047
:101EB0000895CF93DF9380910302813009F065C0CC
:101EC000109203021092040220E0C7E3D2E030E057
:101ED000F901EE0FFF1FEE0FFF1FEE0FFF1FEC0FBC
:101EE000FD1F8281882309F448C0F901EE0FFF1F0E
:101EF000EE0FFF1FEE0FFF1FEC0FFD1F8681978176
:101F0000AC014F5F5F4F57834683838194814817AD
:101F10005907D1F4F901EE0FFF1FEE0FFF1FEE0F6F
:101F2000FF1FEC0FFD1F0190F081E02D0995E0915E
:101F30000402F0E0EE0FFF1FEE0FFF1FEE0FFF1F7A
:101F4000EC0FFD1F178216828091040290E0FC01C5
:101F5000EE0FFF1FEE0FFF1FEE0FFF1FEC0FFD1F19
:101F60002581222351F4FC01EE0FFF1FEE0FFF1F0E
:101F7000EE0FFF1FEC0FFD1F1282209104022F5F56
:101F800020930402243008F4A2CF80E0DF91CF91A7
:101F90000895E82FF0E0EE0FFF1FEE0FFF1FEE0F8A
:101FA000FF1FE95CFD4F1282089580910602813087
:101FB00009F06AC0809107028A3008F061C0809100
:101FC0000802803128F48093090210920A0206C0A8
:101FD00091E090930A0280518093090220910702B8
:101FE00030E040910802F901EE0FFF1FE295F295F3
:101FF000F07FFE27E07FFE27E40FF11DE856FF4F3C
:1020000080818823F1F08091090260910A020E9488
:102010009C0190910802E0910702F0E0EE0FFF1F93
:10202000E295F295F07FFE27E07FFE27E90FF11D94
:10203000E856FF4F80819F5F909308020E940F0136
:1020400021C04032D0F44132E8F488E990E0220F18
:10205000331F22953295307F3227207F322750E27E
:10206000F901E40FF11DE80FF91F50834F5F413272
:10207000B9F781E28093080205C01092080202C0FD
:102080001092070210920602089580E00E945B09F8
:10209000882329F080910B028F5F80930B0280913F
:1020A0000B02853138F0809107028F5F8093070221
:1020B00010920B0281E00E945B09882329F0809135
:1020C0000C028F5F80930C0280910C02853138F0F6
:1020D0008091070281508093070210920C020895AC
:1020E000089581E080930302089588ED91E00E94B5
:1020F000E90E0E9449008FE490E061E040E02AE0B0
:1021000030E00E943C0F0E94590FFDCF0CD0E6C07A
:10211000DED040F0D5D030F021F45F3F19F0C7C0D9
:10212000511110C1CAC0EBD098F39923C9F35523BC
:10213000B1F3951B550BBB27AA27621773078407BA
:1021400038F09F5F5F4F220F331F441FAA1FA9F370
:1021500033D00E2E3AF0E0E830D091505040E69562
:10216000001CCAF729D0FE2F27D0660F771F881FC3
:10217000BB1F261737074807AB07B0E809F0BB0BB2
:10218000802DBF01FF2793585F4F2AF09E3F5105D6
:1021900068F08DC0D7C05F3FECF3983EDCF38695C6
:1021A00077956795B795F7959F5FC9F7880F911D4C
:1021B0009695879597F90895E1E0660F771F881F38
:1021C000BB1F621773078407BA0720F0621B730BEB
:1021D000840BBA0BEE1F88F7E095089598D088F02D
:1021E0009F5790F0B92F9927B751A0F0D1F0660F03
:1021F000771F881F991F1AF0BA95C9F712C0B1301E
:1022000081F09FD0B1E008959CC0672F782F882778
:10221000B85F39F0B93FCCF3869577956795B3955C
:10222000D9F73EF490958095709561957F4F8F4FCB
:102230009F4F0895E89409C097FB3EF490958095D0
:10224000709561957F4F8F4F9F4F9923A9F0F92F7C
:1022500096E9BB279395F695879577956795B795FA
:10226000F111F8CFFAF4BB0F11F460FF1BC06F5FE0
:102270007F4F8F4F9F4F16C0882311F096E911C0F2
:10228000772321F09EE8872F762F05C0662371F013
:1022900096E8862F70E060E02AF09A95660F771F27
:1022A000881FDAF7880F9695879597F9089597F91B
:1022B0009F6780E870E060E008959FEF80EC0895EC
:1022C00000240A9416161706180609060895002415
:1022D0000A9412161306140605060895092E03948F
:1022E000000C11F4882352F0BB0F40F4BF2B11F403
:1022F00060FF04C06F5F7F4F8F4F9F4F089557FD62
:102300009058440F551F59F05F3F71F04795880F63
:1023100097FB991F61F09F3F79F0879508951216FA
:1023200013061406551FF2CF4695F1DF08C01616A6
:1023300017061806991FF1CF869571056105089457
:102340000895E894BB2766277727CB0197F908956E
:102350000BD0C4CFB5DF28F0BADF18F0952309F011
:10236000A6CFABCF1124EECFCADFA0F3959FD1F358
:10237000950F50E0551F629FF001729FBB27F00D33
:10238000B11D639FAA27F00DB11DAA1F649F662788
:10239000B00DA11D661F829F2227B00DA11D621FD7
:1023A000739FB00DA11D621F839FA00D611D221F91
:1023B000749F3327A00D611D231F849F600D211D75
:1023C000822F762F6A2F11249F5750408AF0E1F018
:1023D00088234AF0EE0FFF1FBB1F661F771F881F61
:1023E00091505040A9F79E3F510570F060CFAACFA1
:1023F0005F3FECF3983EDCF3869577956795B7954C
:10240000F795E7959F5FC1F7FE2B880F911D969575
:10241000879597F90895A1E21A2EAA1BBB1BFD010F
:102420000DC0AA1FBB1FEE1FFF1FA217B307E407B3
:10243000F50720F0A21BB30BE40BF50B661F771F0B
:10244000881F991F1A9469F76095709580959095EB
:0E2450009B01AC01BD01CF010895F894FFCFB0
:10245E0003FCFF03E0FF031CFF0210FF7110E608F0
:10246E00031CFF02100205040000FFFF020003061A
:10247E000006020601060000010000000000010433
:10248E000000020001070000312E49732035202B79
:10249E002032203D2037203F202000000000000089
:1024AE000000000000000000322E495320456172EA
:1024BE00746820466C6174203F20200000000000EC
:1024CE000000000000000000332E446F20596F758D
:1024DE00206C696B652043686F636F6C6174653F38
:1024EE002000000000000000342E446F20596F754C
:1024FE00206C696B6520456D62656464656420536C
:10250E00797374656D73203F352E446F20596F7546
:10251E00204B6E6F77204D79206E616D65203F20C8
:10252E000000000000000000362E4E4F200000007C
:10253E00000000000000000000000000000000008D
:10254E000000000000000000372E59455320000007
:10255E00000000000000000000000000000000006D
:10256E000000000000000000382E46616C736520EC
:10257E00416E73776572212120000000000000007B
:10258E000000000000000000392E436F7272656378
:10259E007420416E737765722121200000000000C7
:1025AE00000000000000000031302E47616D6520F4
:1025BE004F76657200000000000000000000000071
:0A25CE000000000000000000010002
:04000005008002571E
:00000001FF
